{
  "contractName": "ERC20",
  "abi": [
    {
      "inputs": [],
      "stateMutability": "nonpayable",
      "type": "constructor"
    },
    {
      "anonymous": false,
      "inputs": [
        {
          "indexed": false,
          "internalType": "address",
          "name": "holder",
          "type": "address"
        }
      ],
      "name": "AddedToWhitelist",
      "type": "event"
    },
    {
      "anonymous": false,
      "inputs": [
        {
          "indexed": true,
          "internalType": "address",
          "name": "owner",
          "type": "address"
        },
        {
          "indexed": true,
          "internalType": "address",
          "name": "spender",
          "type": "address"
        },
        {
          "indexed": false,
          "internalType": "uint256",
          "name": "value",
          "type": "uint256"
        }
      ],
      "name": "Approval",
      "type": "event"
    },
    {
      "anonymous": false,
      "inputs": [
        {
          "indexed": false,
          "internalType": "address",
          "name": "from",
          "type": "address"
        },
        {
          "indexed": false,
          "internalType": "uint256",
          "name": "value",
          "type": "uint256"
        }
      ],
      "name": "Burn",
      "type": "event"
    },
    {
      "anonymous": false,
      "inputs": [
        {
          "indexed": true,
          "internalType": "address",
          "name": "oldIssuer",
          "type": "address"
        },
        {
          "indexed": true,
          "internalType": "address",
          "name": "newIssuer",
          "type": "address"
        }
      ],
      "name": "IssuerTransferred",
      "type": "event"
    },
    {
      "anonymous": false,
      "inputs": [
        {
          "indexed": true,
          "internalType": "address",
          "name": "oldRegistrar",
          "type": "address"
        },
        {
          "indexed": true,
          "internalType": "address",
          "name": "newRegistrar",
          "type": "address"
        }
      ],
      "name": "RegistrarTransferred",
      "type": "event"
    },
    {
      "anonymous": false,
      "inputs": [
        {
          "indexed": false,
          "internalType": "address",
          "name": "holder",
          "type": "address"
        }
      ],
      "name": "RemovedFromWhitelist",
      "type": "event"
    },
    {
      "anonymous": false,
      "inputs": [
        {
          "indexed": false,
          "internalType": "address",
          "name": "from",
          "type": "address"
        },
        {
          "indexed": false,
          "internalType": "address",
          "name": "to",
          "type": "address"
        },
        {
          "indexed": false,
          "internalType": "uint256",
          "name": "amount",
          "type": "uint256"
        }
      ],
      "name": "Transfer",
      "type": "event"
    },
    {
      "inputs": [
        {
          "internalType": "address",
          "name": "",
          "type": "address"
        },
        {
          "internalType": "address",
          "name": "",
          "type": "address"
        }
      ],
      "name": "_allowed",
      "outputs": [
        {
          "internalType": "uint256",
          "name": "",
          "type": "uint256"
        }
      ],
      "stateMutability": "view",
      "type": "function"
    },
    {
      "inputs": [
        {
          "internalType": "address",
          "name": "",
          "type": "address"
        }
      ],
      "name": "_balances",
      "outputs": [
        {
          "internalType": "uint256",
          "name": "",
          "type": "uint256"
        }
      ],
      "stateMutability": "view",
      "type": "function"
    },
    {
      "inputs": [],
      "name": "asset",
      "outputs": [
        {
          "internalType": "string",
          "name": "",
          "type": "string"
        }
      ],
      "stateMutability": "view",
      "type": "function"
    },
    {
      "inputs": [],
      "name": "decimals",
      "outputs": [
        {
          "internalType": "uint256",
          "name": "",
          "type": "uint256"
        }
      ],
      "stateMutability": "view",
      "type": "function"
    },
    {
      "inputs": [],
      "name": "issuer",
      "outputs": [
        {
          "internalType": "address",
          "name": "",
          "type": "address"
        }
      ],
      "stateMutability": "view",
      "type": "function"
    },
    {
      "inputs": [],
      "name": "name",
      "outputs": [
        {
          "internalType": "string",
          "name": "",
          "type": "string"
        }
      ],
      "stateMutability": "view",
      "type": "function"
    },
    {
      "inputs": [],
      "name": "paused",
      "outputs": [
        {
          "internalType": "bool",
          "name": "",
          "type": "bool"
        }
      ],
      "stateMutability": "view",
      "type": "function"
    },
    {
      "inputs": [],
      "name": "registrar",
      "outputs": [
        {
          "internalType": "address",
          "name": "",
          "type": "address"
        }
      ],
      "stateMutability": "view",
      "type": "function"
    },
    {
      "inputs": [],
      "name": "totalSupply",
      "outputs": [
        {
          "internalType": "uint256",
          "name": "",
          "type": "uint256"
        }
      ],
      "stateMutability": "view",
      "type": "function"
    },
    {
      "inputs": [
        {
          "internalType": "address",
          "name": "",
          "type": "address"
        }
      ],
      "name": "whitelist",
      "outputs": [
        {
          "internalType": "bool",
          "name": "",
          "type": "bool"
        }
      ],
      "stateMutability": "view",
      "type": "function"
    },
    {
      "inputs": [
        {
          "internalType": "address",
          "name": "_address",
          "type": "address"
        }
      ],
      "name": "checkBalanceforIsuuerorRegisterar",
      "outputs": [
        {
          "internalType": "uint256",
          "name": "",
          "type": "uint256"
        }
      ],
      "stateMutability": "view",
      "type": "function"
    },
    {
      "inputs": [],
      "name": "checkBalance",
      "outputs": [
        {
          "internalType": "uint256",
          "name": "",
          "type": "uint256"
        }
      ],
      "stateMutability": "view",
      "type": "function"
    },
    {
      "inputs": [],
      "name": "pauseContract",
      "outputs": [
        {
          "internalType": "bool",
          "name": "",
          "type": "bool"
        }
      ],
      "stateMutability": "nonpayable",
      "type": "function"
    },
    {
      "inputs": [],
      "name": "unpauseContract",
      "outputs": [
        {
          "internalType": "bool",
          "name": "",
          "type": "bool"
        }
      ],
      "stateMutability": "nonpayable",
      "type": "function"
    },
    {
      "inputs": [],
      "name": "isPaused",
      "outputs": [
        {
          "internalType": "bool",
          "name": "",
          "type": "bool"
        }
      ],
      "stateMutability": "view",
      "type": "function"
    },
    {
      "inputs": [
        {
          "internalType": "address payable",
          "name": "_newIssuer",
          "type": "address"
        }
      ],
      "name": "newIssuer",
      "outputs": [],
      "stateMutability": "nonpayable",
      "type": "function"
    },
    {
      "inputs": [
        {
          "internalType": "address payable",
          "name": "_newRegistrar",
          "type": "address"
        }
      ],
      "name": "newRegistrar",
      "outputs": [],
      "stateMutability": "nonpayable",
      "type": "function"
    },
    {
      "inputs": [
        {
          "internalType": "address",
          "name": "reciever",
          "type": "address"
        }
      ],
      "name": "customerAllowance",
      "outputs": [
        {
          "internalType": "uint256",
          "name": "",
          "type": "uint256"
        }
      ],
      "stateMutability": "view",
      "type": "function"
    },
    {
      "inputs": [
        {
          "internalType": "address",
          "name": "sender",
          "type": "address"
        },
        {
          "internalType": "address",
          "name": "reciever",
          "type": "address"
        },
        {
          "internalType": "uint256",
          "name": "addedValue",
          "type": "uint256"
        }
      ],
      "name": "increaseAllowance",
      "outputs": [
        {
          "internalType": "bool",
          "name": "",
          "type": "bool"
        }
      ],
      "stateMutability": "nonpayable",
      "type": "function"
    },
    {
      "inputs": [
        {
          "internalType": "address",
          "name": "sender",
          "type": "address"
        },
        {
          "internalType": "address",
          "name": "reciever",
          "type": "address"
        },
        {
          "internalType": "uint256",
          "name": "subtractedValue",
          "type": "uint256"
        }
      ],
      "name": "decreaseAllowance",
      "outputs": [
        {
          "internalType": "bool",
          "name": "",
          "type": "bool"
        }
      ],
      "stateMutability": "nonpayable",
      "type": "function"
    },
    {
      "inputs": [
        {
          "internalType": "address",
          "name": "from",
          "type": "address"
        },
        {
          "internalType": "address",
          "name": "to",
          "type": "address"
        }
      ],
      "name": "allowanceOf",
      "outputs": [
        {
          "internalType": "uint256",
          "name": "",
          "type": "uint256"
        }
      ],
      "stateMutability": "view",
      "type": "function"
    },
    {
      "inputs": [
        {
          "internalType": "address",
          "name": "from",
          "type": "address"
        },
        {
          "internalType": "address",
          "name": "to",
          "type": "address"
        },
        {
          "internalType": "uint256",
          "name": "value",
          "type": "uint256"
        }
      ],
      "name": "transferTokenAsIssuer",
      "outputs": [
        {
          "internalType": "bool",
          "name": "",
          "type": "bool"
        }
      ],
      "stateMutability": "nonpayable",
      "type": "function"
    },
    {
      "inputs": [
        {
          "internalType": "address",
          "name": "_to",
          "type": "address"
        },
        {
          "internalType": "uint256",
          "name": "_value",
          "type": "uint256"
        }
      ],
      "name": "transferForCustomer",
      "outputs": [
        {
          "internalType": "bool",
          "name": "",
          "type": "bool"
        }
      ],
      "stateMutability": "nonpayable",
      "type": "function"
    },
    {
      "inputs": [
        {
          "internalType": "uint256",
          "name": "amount",
          "type": "uint256"
        }
      ],
      "name": "burn",
      "outputs": [
        {
          "internalType": "bool",
          "name": "",
          "type": "bool"
        }
      ],
      "stateMutability": "nonpayable",
      "type": "function"
    },
    {
      "inputs": [
        {
          "internalType": "uint256",
          "name": "_token",
          "type": "uint256"
        }
      ],
      "name": "mint",
      "outputs": [
        {
          "internalType": "bool",
          "name": "",
          "type": "bool"
        }
      ],
      "stateMutability": "nonpayable",
      "type": "function"
    },
    {
      "inputs": [
        {
          "internalType": "address",
          "name": "_to",
          "type": "address"
        },
        {
          "internalType": "uint256",
          "name": "_value",
          "type": "uint256"
        }
      ],
      "name": "transferFromIssuer",
      "outputs": [
        {
          "internalType": "bool",
          "name": "success",
          "type": "bool"
        }
      ],
      "stateMutability": "nonpayable",
      "type": "function"
    },
    {
      "inputs": [
        {
          "internalType": "address",
          "name": "verifiedAddress",
          "type": "address"
        }
      ],
      "name": "addToWhitelist",
      "outputs": [
        {
          "internalType": "bool",
          "name": "success",
          "type": "bool"
        }
      ],
      "stateMutability": "nonpayable",
      "type": "function"
    },
    {
      "inputs": [
        {
          "internalType": "address",
          "name": "_customer",
          "type": "address"
        }
      ],
      "name": "removeFromWhitelist",
      "outputs": [
        {
          "internalType": "bool",
          "name": "success",
          "type": "bool"
        }
      ],
      "stateMutability": "nonpayable",
      "type": "function"
    },
    {
      "inputs": [
        {
          "internalType": "address",
          "name": "_address",
          "type": "address"
        }
      ],
      "name": "isWhitelisted",
      "outputs": [
        {
          "internalType": "bool",
          "name": "",
          "type": "bool"
        }
      ],
      "stateMutability": "view",
      "type": "function"
    },
    {
      "inputs": [],
      "name": "kill",
      "outputs": [],
      "stateMutability": "nonpayable",
      "type": "function"
    }
  ],
  "bytecode": "0x60806040526040518060400160405280600981526020017f48444120546f6b656e000000000000000000000000000000000000000000000081525060009080519060200190620000519291906200041e565b506040518060400160405280600c81526020017f5265616c73204573746174650000000000000000000000000000000000000000815250600190805190602001906200009f9291906200041e565b5062061a8060025560126003556000600860006101000a81548160ff021916908315150217905550348015620000d457600080fd5b5033600460006101000a81548173ffffffffffffffffffffffffffffffffffffffff021916908373ffffffffffffffffffffffffffffffffffffffff16021790555073ab8483f64d9c6d1ecf9b849ae677dd3315835cb2600560006101000a81548173ffffffffffffffffffffffffffffffffffffffff021916908373ffffffffffffffffffffffffffffffffffffffff1602179055506200019e600460009054906101000a900473ffffffffffffffffffffffffffffffffffffffff166200025c60201b60201c565b50620001d2600560009054906101000a900473ffffffffffffffffffffffffffffffffffffffff166200025c60201b60201c565b5060025460066000600460009054906101000a900473ffffffffffffffffffffffffffffffffffffffff1673ffffffffffffffffffffffffffffffffffffffff1673ffffffffffffffffffffffffffffffffffffffff168152602001908152602001600020819055506001600860006101000a81548160ff02191690831515021790555062000632565b6000600460009054906101000a900473ffffffffffffffffffffffffffffffffffffffff1673ffffffffffffffffffffffffffffffffffffffff163373ffffffffffffffffffffffffffffffffffffffff161480620003085750600560009054906101000a900473ffffffffffffffffffffffffffffffffffffffff1673ffffffffffffffffffffffffffffffffffffffff163373ffffffffffffffffffffffffffffffffffffffff16145b6200034a576040517f08c379a000000000000000000000000000000000000000000000000000000000815260040162000341906200059a565b60405180910390fd5b600073ffffffffffffffffffffffffffffffffffffffff168273ffffffffffffffffffffffffffffffffffffffff161415620003bd576040517f08c379a0000000000000000000000000000000000000000000000000000000008152600401620003b49062000578565b60405180910390fd5b6001600960008473ffffffffffffffffffffffffffffffffffffffff1673ffffffffffffffffffffffffffffffffffffffff16815260200190815260200160002060006101000a81548160ff02191690831515021790555060019050919050565b8280546200042c90620005cd565b90600052602060002090601f0160209004810192826200045057600085556200049c565b82601f106200046b57805160ff19168380011785556200049c565b828001600101855582156200049c579182015b828111156200049b5782518255916020019190600101906200047e565b5b509050620004ab9190620004af565b5090565b5b80821115620004ca576000816000905550600101620004b0565b5090565b6000620004dd601e83620005bc565b91507f76657269666564416464726573732073686f756c642062652076616c696400006000830152602082019050919050565b60006200051f602283620005bc565b91507f6f6e6c792076616c696420666f7220697373756572206f72207265676973747260008301527f61720000000000000000000000000000000000000000000000000000000000006020830152604082019050919050565b600060208201905081810360008301526200059381620004ce565b9050919050565b60006020820190508181036000830152620005b58162000510565b9050919050565b600082825260208201905092915050565b60006002820490506001821680620005e657607f821691505b60208210811415620005fd57620005fc62000603565b5b50919050565b7f4e487b7100000000000000000000000000000000000000000000000000000000600052602260045260246000fd5b61496680620006426000396000f3fe608060405234801561001057600080fd5b50600436106101da5760003560e01c80636c43a2ca11610104578063b187bd26116100a2578063c71daccb11610071578063c71daccb146105bd578063d73b1dc9146105db578063e43252d71461060b578063ebf2aa311461063b576101da565b8063b187bd2614610521578063b33712c51461053f578063ba0fb8611461055d578063bde2d8451461058d576101da565b806396769467116100de57806396769467146104615780639b19251a146104915780639c01aa97146104c1578063a0712d68146104f1576101da565b80636c43a2ca146103d15780636ebcf607146104015780638ab1d68114610431576101da565b806338d52e0f1161017c57806342ad10de1161014b57806342ad10de1461035d578063439766ce146103795780634e17cfb4146103975780635c975abb146103b3576101da565b806338d52e0f146102d55780633af32abf146102f357806341c0e1b51461032357806342966c681461032d576101da565b80631d143848116101b85780631d1438481461024b5780632b20e39714610269578063313ce56714610287578063358c4ab8146102a5576101da565b806306fdde03146101df57806318160ddd146101fd5780631a46ec821461021b575b600080fd5b6101e761066b565b6040516101f491906142da565b60405180910390f35b6102056106f9565b60405161021291906146fc565b60405180910390f35b61023560048036038101906102309190613798565b6106ff565b60405161024291906146fc565b60405180910390f35b61025361094e565b6040516102609190614244565b60405180910390f35b610271610974565b60405161027e9190614244565b60405180910390f35b61028f61099a565b60405161029c91906146fc565b60405180910390f35b6102bf60048036038101906102ba9190613823565b6109a0565b6040516102cc91906142bf565b60405180910390f35b6102dd610ece565b6040516102ea91906142da565b60405180910390f35b61030d60048036038101906103089190613746565b610f5c565b60405161031a91906142bf565b60405180910390f35b61032b611021565b005b6103476004803603810190610342919061385f565b6110f8565b60405161035491906142bf565b60405180910390f35b6103776004803603810190610372919061376f565b6113fd565b005b6103816116dc565b60405161038e91906142bf565b60405180910390f35b6103b160048036038101906103ac919061376f565b611838565b005b6103bb611b17565b6040516103c891906142bf565b60405180910390f35b6103eb60048036038101906103e691906137d4565b611b2a565b6040516103f891906142bf565b60405180910390f35b61041b60048036038101906104169190613746565b611f32565b60405161042891906146fc565b60405180910390f35b61044b60048036038101906104469190613746565b611f4a565b60405161045891906142bf565b60405180910390f35b61047b60048036038101906104769190613746565b612198565b60405161048891906146fc565b60405180910390f35b6104ab60048036038101906104a69190613746565b61231d565b6040516104b891906142bf565b60405180910390f35b6104db60048036038101906104d69190613746565b61233d565b6040516104e891906146fc565b60405180910390f35b61050b6004803603810190610506919061385f565b61246e565b60405161051891906142bf565b60405180910390f35b610529612635565b60405161053691906142bf565b60405180910390f35b61054761264c565b60405161055491906142bf565b60405180910390f35b61057760048036038101906105729190613798565b6127a7565b60405161058491906146fc565b60405180910390f35b6105a760048036038101906105a29190613823565b6127cc565b6040516105b491906142bf565b60405180910390f35b6105c5612b91565b6040516105d291906146fc565b60405180910390f35b6105f560048036038101906105f091906137d4565b612bd8565b60405161060291906142bf565b60405180910390f35b61062560048036038101906106209190613746565b612fe0565b60405161063291906142bf565b60405180910390f35b610655600480360381019061065091906137d4565b61319b565b60405161066291906142bf565b60405180910390f35b600080546106789061484a565b80601f01602080910402602001604051908101604052809291908181526020018280546106a49061484a565b80156106f15780601f106106c6576101008083540402835291602001916106f1565b820191906000526020600020905b8154815290600101906020018083116106d457829003601f168201915b505050505081565b60025481565b6000600460009054906101000a900473ffffffffffffffffffffffffffffffffffffffff1673ffffffffffffffffffffffffffffffffffffffff163373ffffffffffffffffffffffffffffffffffffffff1614806107aa5750600560009054906101000a900473ffffffffffffffffffffffffffffffffffffffff1673ffffffffffffffffffffffffffffffffffffffff163373ffffffffffffffffffffffffffffffffffffffff16145b6107e9576040517f08c379a00000000000000000000000000000000000000000000000000000000081526004016107e0906144bc565b60405180910390fd5b600073ffffffffffffffffffffffffffffffffffffffff168373ffffffffffffffffffffffffffffffffffffffff161415610859576040517f08c379a00000000000000000000000000000000000000000000000000000000081526004016108509061469c565b60405180910390fd5b600073ffffffffffffffffffffffffffffffffffffffff168273ffffffffffffffffffffffffffffffffffffffff1614156108c9576040517f08c379a00000000000000000000000000000000000000000000000000000000081526004016108c09061463c565b60405180910390fd5b600760008473ffffffffffffffffffffffffffffffffffffffff1673ffffffffffffffffffffffffffffffffffffffff16815260200190815260200160002060008373ffffffffffffffffffffffffffffffffffffffff1673ffffffffffffffffffffffffffffffffffffffff16815260200190815260200160002054905092915050565b600460009054906101000a900473ffffffffffffffffffffffffffffffffffffffff1681565b600560009054906101000a900473ffffffffffffffffffffffffffffffffffffffff1681565b60035481565b60008073ffffffffffffffffffffffffffffffffffffffff168373ffffffffffffffffffffffffffffffffffffffff1614156109db57600080fd5b60008211610a1e576040517f08c379a0000000000000000000000000000000000000000000000000000000008152600401610a159061449c565b60405180910390fd5b600860009054906101000a900460ff1615610a6e576040517f08c379a0000000000000000000000000000000000000000000000000000000008152600401610a659061459c565b60405180910390fd5b610a7733610f5c565b610ab6576040517f08c379a0000000000000000000000000000000000000000000000000000000008152600401610aad9061431c565b60405180910390fd5b600660003373ffffffffffffffffffffffffffffffffffffffff1673ffffffffffffffffffffffffffffffffffffffff16815260200190815260200160002054821115610b38576040517f08c379a0000000000000000000000000000000000000000000000000000000008152600401610b2f906143dc565b60405180910390fd5b610b4183610f5c565b610b80576040517f08c379a0000000000000000000000000000000000000000000000000000000008152600401610b779061451c565b60405180910390fd5b600254821115610bc5576040517f08c379a0000000000000000000000000000000000000000000000000000000008152600401610bbc9061455c565b60405180910390fd5b60066000600460009054906101000a900473ffffffffffffffffffffffffffffffffffffffff1673ffffffffffffffffffffffffffffffffffffffff1673ffffffffffffffffffffffffffffffffffffffff16815260200190815260200160002054821115610c69576040517f08c379a0000000000000000000000000000000000000000000000000000000008152600401610c609061445c565b60405180910390fd5b81600660008573ffffffffffffffffffffffffffffffffffffffff1673ffffffffffffffffffffffffffffffffffffffff1681526020019081526020016000206000828254610cb89190614733565b9250508190555081600660003373ffffffffffffffffffffffffffffffffffffffff1673ffffffffffffffffffffffffffffffffffffffff1681526020019081526020016000206000828254610d0e9190614789565b925050819055506000600760003373ffffffffffffffffffffffffffffffffffffffff1673ffffffffffffffffffffffffffffffffffffffff16815260200190815260200160002060008573ffffffffffffffffffffffffffffffffffffffff1673ffffffffffffffffffffffffffffffffffffffff1681526020019081526020016000205411610dd4576040517f08c379a0000000000000000000000000000000000000000000000000000000008152600401610dcb906144fc565b60405180910390fd5b81600760003373ffffffffffffffffffffffffffffffffffffffff1673ffffffffffffffffffffffffffffffffffffffff16815260200190815260200160002060008573ffffffffffffffffffffffffffffffffffffffff1673ffffffffffffffffffffffffffffffffffffffff1681526020019081526020016000206000828254610e609190614789565b925050819055507fddf252ad1be2c89b69c2b068fc378daa952ba7f163c4a11628f55a4df523b3ef600460009054906101000a900473ffffffffffffffffffffffffffffffffffffffff168484604051610ebc9392919061425f565b60405180910390a16001905092915050565b60018054610edb9061484a565b80601f0160208091040260200160405190810160405280929190818152602001828054610f079061484a565b8015610f545780601f10610f2957610100808354040283529160200191610f54565b820191906000526020600020905b815481529060010190602001808311610f3757829003601f168201915b505050505081565b60008073ffffffffffffffffffffffffffffffffffffffff168273ffffffffffffffffffffffffffffffffffffffff161415610fcd576040517f08c379a0000000000000000000000000000000000000000000000000000000008152600401610fc4906145bc565b60405180910390fd5b600960008373ffffffffffffffffffffffffffffffffffffffff1673ffffffffffffffffffffffffffffffffffffffff16815260200190815260200160002060009054906101000a900460ff169050919050565b600460009054906101000a900473ffffffffffffffffffffffffffffffffffffffff1673ffffffffffffffffffffffffffffffffffffffff163373ffffffffffffffffffffffffffffffffffffffff16146110b1576040517f08c379a00000000000000000000000000000000000000000000000000000000081526004016110a89061443c565b60405180910390fd5b6110bc6002546110f8565b50600460009054906101000a900473ffffffffffffffffffffffffffffffffffffffff1673ffffffffffffffffffffffffffffffffffffffff16ff5b6000600460009054906101000a900473ffffffffffffffffffffffffffffffffffffffff1673ffffffffffffffffffffffffffffffffffffffff163373ffffffffffffffffffffffffffffffffffffffff1614806111a35750600560009054906101000a900473ffffffffffffffffffffffffffffffffffffffff1673ffffffffffffffffffffffffffffffffffffffff163373ffffffffffffffffffffffffffffffffffffffff16145b6111e2576040517f08c379a00000000000000000000000000000000000000000000000000000000081526004016111d9906144bc565b60405180910390fd5b60008211611225576040517f08c379a000000000000000000000000000000000000000000000000000000000815260040161121c906144dc565b60405180910390fd5b60066000600460009054906101000a900473ffffffffffffffffffffffffffffffffffffffff1673ffffffffffffffffffffffffffffffffffffffff1673ffffffffffffffffffffffffffffffffffffffff168152602001908152602001600020548211156112c9576040517f08c379a00000000000000000000000000000000000000000000000000000000081526004016112c0906146bc565b60405180910390fd5b81600260008282546112db9190614789565b925050819055506113568260066000600460009054906101000a900473ffffffffffffffffffffffffffffffffffffffff1673ffffffffffffffffffffffffffffffffffffffff1673ffffffffffffffffffffffffffffffffffffffff168152602001908152602001600020546136db90919063ffffffff16565b60066000600460009054906101000a900473ffffffffffffffffffffffffffffffffffffffff1673ffffffffffffffffffffffffffffffffffffffff1673ffffffffffffffffffffffffffffffffffffffff168152602001908152602001600020819055507fcc16f5dbb4873280815c1ee09dbd06736cffcc184412cf7a71a0fdb75d397ca533836040516113ec929190614296565b60405180910390a160019050919050565b600460009054906101000a900473ffffffffffffffffffffffffffffffffffffffff1673ffffffffffffffffffffffffffffffffffffffff163373ffffffffffffffffffffffffffffffffffffffff1614806114a65750600560009054906101000a900473ffffffffffffffffffffffffffffffffffffffff1673ffffffffffffffffffffffffffffffffffffffff163373ffffffffffffffffffffffffffffffffffffffff16145b6114e5576040517f08c379a00000000000000000000000000000000000000000000000000000000081526004016114dc906144bc565b60405180910390fd5b600073ffffffffffffffffffffffffffffffffffffffff168173ffffffffffffffffffffffffffffffffffffffff161415611555576040517f08c379a000000000000000000000000000000000000000000000000000000000815260040161154c9061461c565b60405180910390fd5b600460009054906101000a900473ffffffffffffffffffffffffffffffffffffffff1673ffffffffffffffffffffffffffffffffffffffff168173ffffffffffffffffffffffffffffffffffffffff1614156115e6576040517f08c379a00000000000000000000000000000000000000000000000000000000081526004016115dd906142fc565b60405180910390fd5b611611600460009054906101000a900473ffffffffffffffffffffffffffffffffffffffff16611f4a565b5080600460006101000a81548173ffffffffffffffffffffffffffffffffffffffff021916908373ffffffffffffffffffffffffffffffffffffffff1602179055508073ffffffffffffffffffffffffffffffffffffffff16600460009054906101000a900473ffffffffffffffffffffffffffffffffffffffff1673ffffffffffffffffffffffffffffffffffffffff167fd7850b647d2d788d7d51865cb8181f56b7ee1fbab1a965018c2168bc9b2025cd60405160405180910390a36116d881612fe0565b5050565b6000600460009054906101000a900473ffffffffffffffffffffffffffffffffffffffff1673ffffffffffffffffffffffffffffffffffffffff163373ffffffffffffffffffffffffffffffffffffffff1614806117875750600560009054906101000a900473ffffffffffffffffffffffffffffffffffffffff1673ffffffffffffffffffffffffffffffffffffffff163373ffffffffffffffffffffffffffffffffffffffff16145b6117c6576040517f08c379a00000000000000000000000000000000000000000000000000000000081526004016117bd906144bc565b60405180910390fd5b600860009054906101000a900460ff1615611816576040517f08c379a000000000000000000000000000000000000000000000000000000000815260040161180d9061433c565b60405180910390fd5b6001600860006101000a81548160ff0219169083151502179055506001905090565b600460009054906101000a900473ffffffffffffffffffffffffffffffffffffffff1673ffffffffffffffffffffffffffffffffffffffff163373ffffffffffffffffffffffffffffffffffffffff1614806118e15750600560009054906101000a900473ffffffffffffffffffffffffffffffffffffffff1673ffffffffffffffffffffffffffffffffffffffff163373ffffffffffffffffffffffffffffffffffffffff16145b611920576040517f08c379a0000000000000000000000000000000000000000000000000000000008152600401611917906144bc565b60405180910390fd5b600073ffffffffffffffffffffffffffffffffffffffff168173ffffffffffffffffffffffffffffffffffffffff161415611990576040517f08c379a00000000000000000000000000000000000000000000000000000000081526004016119879061439c565b60405180910390fd5b600560009054906101000a900473ffffffffffffffffffffffffffffffffffffffff1673ffffffffffffffffffffffffffffffffffffffff168173ffffffffffffffffffffffffffffffffffffffff161415611a21576040517f08c379a0000000000000000000000000000000000000000000000000000000008152600401611a189061437c565b60405180910390fd5b611a4c600560009054906101000a900473ffffffffffffffffffffffffffffffffffffffff16611f4a565b508073ffffffffffffffffffffffffffffffffffffffff16600560009054906101000a900473ffffffffffffffffffffffffffffffffffffffff1673ffffffffffffffffffffffffffffffffffffffff167fed6f22d50c794502c2d865198855205c3c33e21f8cc727a7e442131dcfae88aa60405160405180910390a380600560006101000a81548173ffffffffffffffffffffffffffffffffffffffff021916908373ffffffffffffffffffffffffffffffffffffffff160217905550611b1381612fe0565b5050565b600860009054906101000a900460ff1681565b6000600460009054906101000a900473ffffffffffffffffffffffffffffffffffffffff1673ffffffffffffffffffffffffffffffffffffffff163373ffffffffffffffffffffffffffffffffffffffff161480611bd55750600560009054906101000a900473ffffffffffffffffffffffffffffffffffffffff1673ffffffffffffffffffffffffffffffffffffffff163373ffffffffffffffffffffffffffffffffffffffff16145b611c14576040517f08c379a0000000000000000000000000000000000000000000000000000000008152600401611c0b906144bc565b60405180910390fd5b600073ffffffffffffffffffffffffffffffffffffffff168473ffffffffffffffffffffffffffffffffffffffff161415611c84576040517f08c379a0000000000000000000000000000000000000000000000000000000008152600401611c7b9061457c565b60405180910390fd5b600073ffffffffffffffffffffffffffffffffffffffff168373ffffffffffffffffffffffffffffffffffffffff161415611cf4576040517f08c379a0000000000000000000000000000000000000000000000000000000008152600401611ceb9061447c565b60405180910390fd5b60008211611d37576040517f08c379a0000000000000000000000000000000000000000000000000000000008152600401611d2e906146dc565b60405180910390fd5b611dc682600760008773ffffffffffffffffffffffffffffffffffffffff1673ffffffffffffffffffffffffffffffffffffffff16815260200190815260200160002060008673ffffffffffffffffffffffffffffffffffffffff1673ffffffffffffffffffffffffffffffffffffffff168152602001908152602001600020546136f190919063ffffffff16565b600760008673ffffffffffffffffffffffffffffffffffffffff1673ffffffffffffffffffffffffffffffffffffffff16815260200190815260200160002060008573ffffffffffffffffffffffffffffffffffffffff1673ffffffffffffffffffffffffffffffffffffffff168152602001908152602001600020819055508273ffffffffffffffffffffffffffffffffffffffff168473ffffffffffffffffffffffffffffffffffffffff167f8c5be1e5ebec7d5bd14f71427d1e84f3dd0314c0f7b2291e5b200ac8c7c3b925600760008873ffffffffffffffffffffffffffffffffffffffff1673ffffffffffffffffffffffffffffffffffffffff16815260200190815260200160002060008773ffffffffffffffffffffffffffffffffffffffff1673ffffffffffffffffffffffffffffffffffffffff16815260200190815260200160002054604051611f1f91906146fc565b60405180910390a3600190509392505050565b60066020528060005260406000206000915090505481565b6000600460009054906101000a900473ffffffffffffffffffffffffffffffffffffffff1673ffffffffffffffffffffffffffffffffffffffff163373ffffffffffffffffffffffffffffffffffffffff161480611ff55750600560009054906101000a900473ffffffffffffffffffffffffffffffffffffffff1673ffffffffffffffffffffffffffffffffffffffff163373ffffffffffffffffffffffffffffffffffffffff16145b612034576040517f08c379a000000000000000000000000000000000000000000000000000000000815260040161202b906144bc565b60405180910390fd5b600073ffffffffffffffffffffffffffffffffffffffff168273ffffffffffffffffffffffffffffffffffffffff1614156120a4576040517f08c379a000000000000000000000000000000000000000000000000000000000815260040161209b9061467c565b60405180910390fd5b60011515600960008473ffffffffffffffffffffffffffffffffffffffff1673ffffffffffffffffffffffffffffffffffffffff16815260200190815260200160002060009054906101000a900460ff16151514612137576040517f08c379a000000000000000000000000000000000000000000000000000000000815260040161212e906145fc565b60405180910390fd5b6000600960008473ffffffffffffffffffffffffffffffffffffffff1673ffffffffffffffffffffffffffffffffffffffff16815260200190815260200160002060006101000a81548160ff02191690831515021790555060019050919050565b60008073ffffffffffffffffffffffffffffffffffffffff168273ffffffffffffffffffffffffffffffffffffffff161415612209576040517f08c379a00000000000000000000000000000000000000000000000000000000081526004016122009061439c565b60405180910390fd5b61221233610f5c565b612251576040517f08c379a00000000000000000000000000000000000000000000000000000000081526004016122489061453c565b60405180910390fd5b61225a82610f5c565b612299576040517f08c379a00000000000000000000000000000000000000000000000000000000081526004016122909061451c565b60405180910390fd5b600760003373ffffffffffffffffffffffffffffffffffffffff1673ffffffffffffffffffffffffffffffffffffffff16815260200190815260200160002060008373ffffffffffffffffffffffffffffffffffffffff1673ffffffffffffffffffffffffffffffffffffffff168152602001908152602001600020549050919050565b60096020528060005260406000206000915054906101000a900460ff1681565b6000600460009054906101000a900473ffffffffffffffffffffffffffffffffffffffff1673ffffffffffffffffffffffffffffffffffffffff163373ffffffffffffffffffffffffffffffffffffffff1614806123e85750600560009054906101000a900473ffffffffffffffffffffffffffffffffffffffff1673ffffffffffffffffffffffffffffffffffffffff163373ffffffffffffffffffffffffffffffffffffffff16145b612427576040517f08c379a000000000000000000000000000000000000000000000000000000000815260040161241e906144bc565b60405180910390fd5b600660008373ffffffffffffffffffffffffffffffffffffffff1673ffffffffffffffffffffffffffffffffffffffff168152602001908152602001600020549050919050565b6000600460009054906101000a900473ffffffffffffffffffffffffffffffffffffffff1673ffffffffffffffffffffffffffffffffffffffff163373ffffffffffffffffffffffffffffffffffffffff1614806125195750600560009054906101000a900473ffffffffffffffffffffffffffffffffffffffff1673ffffffffffffffffffffffffffffffffffffffff163373ffffffffffffffffffffffffffffffffffffffff16145b612558576040517f08c379a000000000000000000000000000000000000000000000000000000000815260040161254f906144bc565b60405180910390fd5b6000821161259b576040517f08c379a00000000000000000000000000000000000000000000000000000000081526004016125929061435c565b60405180910390fd5b81600260008282546125ad9190614733565b925050819055508160066000600460009054906101000a900473ffffffffffffffffffffffffffffffffffffffff1673ffffffffffffffffffffffffffffffffffffffff1673ffffffffffffffffffffffffffffffffffffffff16815260200190815260200160002060008282546126259190614733565b9250508190555060019050919050565b6000600860009054906101000a900460ff16905090565b6000600460009054906101000a900473ffffffffffffffffffffffffffffffffffffffff1673ffffffffffffffffffffffffffffffffffffffff163373ffffffffffffffffffffffffffffffffffffffff1614806126f75750600560009054906101000a900473ffffffffffffffffffffffffffffffffffffffff1673ffffffffffffffffffffffffffffffffffffffff163373ffffffffffffffffffffffffffffffffffffffff16145b612736576040517f08c379a000000000000000000000000000000000000000000000000000000000815260040161272d906144bc565b60405180910390fd5b600860009054906101000a900460ff16612785576040517f08c379a000000000000000000000000000000000000000000000000000000000815260040161277c906143fc565b60405180910390fd5b6000600860006101000a81548160ff0219169083151502179055506001905090565b6007602052816000526040600020602052806000526040600020600091509150505481565b6000600460009054906101000a900473ffffffffffffffffffffffffffffffffffffffff1673ffffffffffffffffffffffffffffffffffffffff163373ffffffffffffffffffffffffffffffffffffffff161461285e576040517f08c379a00000000000000000000000000000000000000000000000000000000081526004016128559061443c565b60405180910390fd5b600073ffffffffffffffffffffffffffffffffffffffff168373ffffffffffffffffffffffffffffffffffffffff16141561289857600080fd5b600082116128db576040517f08c379a00000000000000000000000000000000000000000000000000000000081526004016128d29061449c565b60405180910390fd5b600860009054906101000a900460ff161561292b576040517f08c379a00000000000000000000000000000000000000000000000000000000081526004016129229061459c565b60405180910390fd5b61293483610f5c565b612973576040517f08c379a000000000000000000000000000000000000000000000000000000000815260040161296a9061451c565b60405180910390fd5b6002548211156129b8576040517f08c379a00000000000000000000000000000000000000000000000000000000081526004016129af9061455c565b60405180910390fd5b60066000600460009054906101000a900473ffffffffffffffffffffffffffffffffffffffff1673ffffffffffffffffffffffffffffffffffffffff1673ffffffffffffffffffffffffffffffffffffffff16815260200190815260200160002054821115612a5c576040517f08c379a0000000000000000000000000000000000000000000000000000000008152600401612a539061445c565b60405180910390fd5b81600660008573ffffffffffffffffffffffffffffffffffffffff1673ffffffffffffffffffffffffffffffffffffffff1681526020019081526020016000206000828254612aab9190614733565b925050819055508160066000600460009054906101000a900473ffffffffffffffffffffffffffffffffffffffff1673ffffffffffffffffffffffffffffffffffffffff1673ffffffffffffffffffffffffffffffffffffffff1681526020019081526020016000206000828254612b239190614789565b925050819055507fddf252ad1be2c89b69c2b068fc378daa952ba7f163c4a11628f55a4df523b3ef600460009054906101000a900473ffffffffffffffffffffffffffffffffffffffff168484604051612b7f9392919061425f565b60405180910390a16001905092915050565b6000600660003373ffffffffffffffffffffffffffffffffffffffff1673ffffffffffffffffffffffffffffffffffffffff16815260200190815260200160002054905090565b6000600460009054906101000a900473ffffffffffffffffffffffffffffffffffffffff1673ffffffffffffffffffffffffffffffffffffffff163373ffffffffffffffffffffffffffffffffffffffff161480612c835750600560009054906101000a900473ffffffffffffffffffffffffffffffffffffffff1673ffffffffffffffffffffffffffffffffffffffff163373ffffffffffffffffffffffffffffffffffffffff16145b612cc2576040517f08c379a0000000000000000000000000000000000000000000000000000000008152600401612cb9906144bc565b60405180910390fd5b600073ffffffffffffffffffffffffffffffffffffffff168473ffffffffffffffffffffffffffffffffffffffff161415612d32576040517f08c379a0000000000000000000000000000000000000000000000000000000008152600401612d299061457c565b60405180910390fd5b600073ffffffffffffffffffffffffffffffffffffffff168373ffffffffffffffffffffffffffffffffffffffff161415612da2576040517f08c379a0000000000000000000000000000000000000000000000000000000008152600401612d999061457c565b60405180910390fd5b60008211612de5576040517f08c379a0000000000000000000000000000000000000000000000000000000008152600401612ddc9061465c565b60405180910390fd5b612e7482600760008773ffffffffffffffffffffffffffffffffffffffff1673ffffffffffffffffffffffffffffffffffffffff16815260200190815260200160002060008673ffffffffffffffffffffffffffffffffffffffff1673ffffffffffffffffffffffffffffffffffffffff168152602001908152602001600020546136db90919063ffffffff16565b600760008673ffffffffffffffffffffffffffffffffffffffff1673ffffffffffffffffffffffffffffffffffffffff16815260200190815260200160002060008573ffffffffffffffffffffffffffffffffffffffff1673ffffffffffffffffffffffffffffffffffffffff168152602001908152602001600020819055508273ffffffffffffffffffffffffffffffffffffffff168473ffffffffffffffffffffffffffffffffffffffff167f8c5be1e5ebec7d5bd14f71427d1e84f3dd0314c0f7b2291e5b200ac8c7c3b925600760008873ffffffffffffffffffffffffffffffffffffffff1673ffffffffffffffffffffffffffffffffffffffff16815260200190815260200160002060008773ffffffffffffffffffffffffffffffffffffffff1673ffffffffffffffffffffffffffffffffffffffff16815260200190815260200160002054604051612fcd91906146fc565b60405180910390a3600190509392505050565b6000600460009054906101000a900473ffffffffffffffffffffffffffffffffffffffff1673ffffffffffffffffffffffffffffffffffffffff163373ffffffffffffffffffffffffffffffffffffffff16148061308b5750600560009054906101000a900473ffffffffffffffffffffffffffffffffffffffff1673ffffffffffffffffffffffffffffffffffffffff163373ffffffffffffffffffffffffffffffffffffffff16145b6130ca576040517f08c379a00000000000000000000000000000000000000000000000000000000081526004016130c1906144bc565b60405180910390fd5b600073ffffffffffffffffffffffffffffffffffffffff168273ffffffffffffffffffffffffffffffffffffffff16141561313a576040517f08c379a0000000000000000000000000000000000000000000000000000000008152600401613131906143bc565b60405180910390fd5b6001600960008473ffffffffffffffffffffffffffffffffffffffff1673ffffffffffffffffffffffffffffffffffffffff16815260200190815260200160002060006101000a81548160ff02191690831515021790555060019050919050565b6000600460009054906101000a900473ffffffffffffffffffffffffffffffffffffffff1673ffffffffffffffffffffffffffffffffffffffff163373ffffffffffffffffffffffffffffffffffffffff1614806132465750600560009054906101000a900473ffffffffffffffffffffffffffffffffffffffff1673ffffffffffffffffffffffffffffffffffffffff163373ffffffffffffffffffffffffffffffffffffffff16145b613285576040517f08c379a000000000000000000000000000000000000000000000000000000000815260040161327c906144bc565b60405180910390fd5b600082116132c8576040517f08c379a00000000000000000000000000000000000000000000000000000000081526004016132bf9061441c565b60405180910390fd5b600660008573ffffffffffffffffffffffffffffffffffffffff1673ffffffffffffffffffffffffffffffffffffffff1681526020019081526020016000205482111561331457600080fd5b600760008573ffffffffffffffffffffffffffffffffffffffff1673ffffffffffffffffffffffffffffffffffffffff16815260200190815260200160002060008473ffffffffffffffffffffffffffffffffffffffff1673ffffffffffffffffffffffffffffffffffffffff1681526020019081526020016000205482111561339d57600080fd5b600073ffffffffffffffffffffffffffffffffffffffff168373ffffffffffffffffffffffffffffffffffffffff1614156133d757600080fd5b6133e084610f5c565b61341f576040517f08c379a00000000000000000000000000000000000000000000000000000000081526004016134169061453c565b60405180910390fd5b61342883610f5c565b613467576040517f08c379a000000000000000000000000000000000000000000000000000000000815260040161345e9061451c565b60405180910390fd5b6002548211156134ac576040517f08c379a00000000000000000000000000000000000000000000000000000000081526004016134a3906145dc565b60405180910390fd5b6134fe82600660008773ffffffffffffffffffffffffffffffffffffffff1673ffffffffffffffffffffffffffffffffffffffff168152602001908152602001600020546136db90919063ffffffff16565b600660008673ffffffffffffffffffffffffffffffffffffffff1673ffffffffffffffffffffffffffffffffffffffff1681526020019081526020016000208190555061359382600660008673ffffffffffffffffffffffffffffffffffffffff1673ffffffffffffffffffffffffffffffffffffffff168152602001908152602001600020546136f190919063ffffffff16565b600660008573ffffffffffffffffffffffffffffffffffffffff1673ffffffffffffffffffffffffffffffffffffffff168152602001908152602001600020819055506000600760008673ffffffffffffffffffffffffffffffffffffffff1673ffffffffffffffffffffffffffffffffffffffff16815260200190815260200160002060008573ffffffffffffffffffffffffffffffffffffffff1673ffffffffffffffffffffffffffffffffffffffff1681526020019081526020016000205411613695576040517f08c379a000000000000000000000000000000000000000000000000000000000815260040161368c906144fc565b60405180910390fd5b7fddf252ad1be2c89b69c2b068fc378daa952ba7f163c4a11628f55a4df523b3ef8484846040516136c89392919061425f565b60405180910390a1600190509392505050565b600081836136e99190614789565b905092915050565b600081836136ff9190614733565b905092915050565b600081359050613716816148eb565b92915050565b60008135905061372b81614902565b92915050565b60008135905061374081614919565b92915050565b60006020828403121561375857600080fd5b600061376684828501613707565b91505092915050565b60006020828403121561378157600080fd5b600061378f8482850161371c565b91505092915050565b600080604083850312156137ab57600080fd5b60006137b985828601613707565b92505060206137ca85828601613707565b9150509250929050565b6000806000606084860312156137e957600080fd5b60006137f786828701613707565b935050602061380886828701613707565b925050604061381986828701613731565b9150509250925092565b6000806040838503121561383657600080fd5b600061384485828601613707565b925050602061385585828601613731565b9150509250929050565b60006020828403121561387157600080fd5b600061387f84828501613731565b91505092915050565b613891816147bd565b82525050565b6138a0816147e1565b82525050565b60006138b182614717565b6138bb8185614722565b93506138cb818560208601614817565b6138d4816148da565b840191505092915050565b60006138ec602c83614722565b91507f4e657720697373756572206164647265737320616e642069737375657220736860008301527f6f756c642062652073616d6500000000000000000000000000000000000000006020830152604082019050919050565b6000613952603583614722565b91507f53656e646572206e6565647320746f2062652077686974656c6973746564206260008301527f7920726567697374726172206f722069737375657200000000000000000000006020830152604082019050919050565b60006139b8601983614722565b91507f436f6e747261637420616c7265616479207061757365642021000000000000006000830152602082019050919050565b60006139f8601383614722565b91507f746f6b656e3a2073686f756c642076616c6964000000000000000000000000006000830152602082019050919050565b6000613a38601783614722565b91507f53686f756c64206265206e6577205265676973747261720000000000000000006000830152602082019050919050565b6000613a78601783614722565b91507f416464726573732073686f756c642062652076616c69640000000000000000006000830152602082019050919050565b6000613ab8601e83614722565b91507f76657269666564416464726573732073686f756c642062652076616c696400006000830152602082019050919050565b6000613af8601983614722565b91507f42616c616e63652073686f756c642062652067726561746572000000000000006000830152602082019050919050565b6000613b38601b83614722565b91507f436f6e747261637420616c726561647920756e706175736564202100000000006000830152602082019050919050565b6000613b78601783614722565b91507f56616c7565203a20696e636f72726563742076616c75650000000000000000006000830152602082019050919050565b6000613bb8601583614722565b91507f6f6e6c792076616c696420666f722069737375657200000000000000000000006000830152602082019050919050565b6000613bf8601283614722565b91507f6e6f7420656e6f7567682062616c616e636500000000000000000000000000006000830152602082019050919050565b6000613c38601a83614722565b91507f72656369657665723a2020696e636f727265637420696e7075740000000000006000830152602082019050919050565b6000613c78601883614722565b91507f5f76616c7565203a2073686f756c642062652076616c696400000000000000006000830152602082019050919050565b6000613cb8602283614722565b91507f6f6e6c792076616c696420666f7220697373756572206f72207265676973747260008301527f61720000000000000000000000000000000000000000000000000000000000006020830152604082019050919050565b6000613d1e601883614722565b91507f616d6f756e74203a2073686f756c642062652076616c696400000000000000006000830152602082019050919050565b6000613d5e601883614722565b91507f616c6c6f77616e6365206973206e6f7420646566696e656400000000000000006000830152602082019050919050565b6000613d9e603783614722565b91507f5265636965766572206e6565647320746f2062652077686974656c697374656460008301527f20627920726567697374726172206f72206973737565720000000000000000006020830152604082019050919050565b6000613e04603583614722565b91507f486f6c646572206e6565647320746f2062652077686974656c6973746564206260008301527f7920726567697374726172206f722069737375657200000000000000000000006020830152604082019050919050565b6000613e6a601383614722565b91507f6f766572666c6f772070726f74656374696f6e000000000000000000000000006000830152602082019050919050565b6000613eaa601883614722565b91507f73656e6465723a2020696e636f727265637420696e70757400000000000000006000830152602082019050919050565b6000613eea601983614722565b91507f7075626c6963207472616e7366657220697320706175736564000000000000006000830152602082019050919050565b6000613f2a602283614722565b91507f5f61646472657373203a20616464726573732073686f756c642062652076616c60008301527f69640000000000000000000000000000000000000000000000000000000000006020830152604082019050919050565b6000613f90601d83614722565b91507f56616c756520626967676572207468616e20546f74616c737570706c790000006000830152602082019050919050565b6000613fd0602083614722565b91507f41646472657373206973206e6f7420696e20796f75722077686974656c6973746000830152602082019050919050565b6000614010601c83614722565b91507f4973737565722063616e2774206265204e756c6c2061646472657373000000006000830152602082019050919050565b6000614050601c83614722565b91507f746f203a20616464726573732073686f756c642062652076616c6964000000006000830152602082019050919050565b6000614090602283614722565b91507f207375627472616374656456616c7565203a20696e636f727265637420696e7060008301527f75740000000000000000000000000000000000000000000000000000000000006020830152604082019050919050565b60006140f6602383614722565b91507f5f637573746f6d6572203a20616464726573732073686f756c6420626520766160008301527f6c696400000000000000000000000000000000000000000000000000000000006020830152604082019050919050565b600061415c601e83614722565b91507f66726f6d203a20616464726573732073686f756c642062652076616c696400006000830152602082019050919050565b600061419c602b83614722565b91507f6e6f7420656e6f7567682062616c616e636520696e206973737565722077616c60008301527f6c657420746f206275726e0000000000000000000000000000000000000000006020830152604082019050919050565b6000614202601c83614722565b91507f616464656456616c7565203a20696e636f727265637420696e707574000000006000830152602082019050919050565b61423e8161480d565b82525050565b60006020820190506142596000830184613888565b92915050565b60006060820190506142746000830186613888565b6142816020830185613888565b61428e6040830184614235565b949350505050565b60006040820190506142ab6000830185613888565b6142b86020830184614235565b9392505050565b60006020820190506142d46000830184613897565b92915050565b600060208201905081810360008301526142f481846138a6565b905092915050565b60006020820190508181036000830152614315816138df565b9050919050565b6000602082019050818103600083015261433581613945565b9050919050565b60006020820190508181036000830152614355816139ab565b9050919050565b60006020820190508181036000830152614375816139eb565b9050919050565b6000602082019050818103600083015261439581613a2b565b9050919050565b600060208201905081810360008301526143b581613a6b565b9050919050565b600060208201905081810360008301526143d581613aab565b9050919050565b600060208201905081810360008301526143f581613aeb565b9050919050565b6000602082019050818103600083015261441581613b2b565b9050919050565b6000602082019050818103600083015261443581613b6b565b9050919050565b6000602082019050818103600083015261445581613bab565b9050919050565b6000602082019050818103600083015261447581613beb565b9050919050565b6000602082019050818103600083015261449581613c2b565b9050919050565b600060208201905081810360008301526144b581613c6b565b9050919050565b600060208201905081810360008301526144d581613cab565b9050919050565b600060208201905081810360008301526144f581613d11565b9050919050565b6000602082019050818103600083015261451581613d51565b9050919050565b6000602082019050818103600083015261453581613d91565b9050919050565b6000602082019050818103600083015261455581613df7565b9050919050565b6000602082019050818103600083015261457581613e5d565b9050919050565b6000602082019050818103600083015261459581613e9d565b9050919050565b600060208201905081810360008301526145b581613edd565b9050919050565b600060208201905081810360008301526145d581613f1d565b9050919050565b600060208201905081810360008301526145f581613f83565b9050919050565b6000602082019050818103600083015261461581613fc3565b9050919050565b6000602082019050818103600083015261463581614003565b9050919050565b6000602082019050818103600083015261465581614043565b9050919050565b6000602082019050818103600083015261467581614083565b9050919050565b60006020820190508181036000830152614695816140e9565b9050919050565b600060208201905081810360008301526146b58161414f565b9050919050565b600060208201905081810360008301526146d58161418f565b9050919050565b600060208201905081810360008301526146f5816141f5565b9050919050565b60006020820190506147116000830184614235565b92915050565b600081519050919050565b600082825260208201905092915050565b600061473e8261480d565b91506147498361480d565b9250827fffffffffffffffffffffffffffffffffffffffffffffffffffffffffffffffff0382111561477e5761477d61487c565b5b828201905092915050565b60006147948261480d565b915061479f8361480d565b9250828210156147b2576147b161487c565b5b828203905092915050565b60006147c8826147ed565b9050919050565b60006147da826147ed565b9050919050565b60008115159050919050565b600073ffffffffffffffffffffffffffffffffffffffff82169050919050565b6000819050919050565b60005b8381101561483557808201518184015260208101905061481a565b83811115614844576000848401525b50505050565b6000600282049050600182168061486257607f821691505b60208210811415614876576148756148ab565b5b50919050565b7f4e487b7100000000000000000000000000000000000000000000000000000000600052601160045260246000fd5b7f4e487b7100000000000000000000000000000000000000000000000000000000600052602260045260246000fd5b6000601f19601f8301169050919050565b6148f4816147bd565b81146148ff57600080fd5b50565b61490b816147cf565b811461491657600080fd5b50565b6149228161480d565b811461492d57600080fd5b5056fea2646970667358221220c893969e2f3c148791ea89eb80996821df121215114a8caaa518dd943c5c851064736f6c63430008000033",
  "immutableReferences": {},
  "source": "// SPDX-License-Identifier: MIT\n\npragma solidity ^0.8.0;\n\n\n\n\nlibrary SafeMath {\n    \n    function tryAdd(uint256 a, uint256 b) internal pure returns (bool, uint256) {\n        unchecked {\n            uint256 c = a + b;\n            if (c < a) return (false, 0);\n            return (true, c);\n        }\n    }\n\n    function trySub(uint256 a, uint256 b) internal pure returns (bool, uint256) {\n        unchecked {\n            if (b > a) return (false, 0);\n            return (true, a - b);\n        }\n    }\n\n    function tryMul(uint256 a, uint256 b) internal pure returns (bool, uint256) {\n        unchecked {\n            if (a == 0) return (true, 0);\n            uint256 c = a * b;\n            if (c / a != b) return (false, 0);\n            return (true, c);\n        }\n    }\n\n    function tryDiv(uint256 a, uint256 b) internal pure returns (bool, uint256) {\n        unchecked {\n            if (b == 0) return (false, 0);\n            return (true, a / b);\n        }\n    }\n\n    function tryMod(uint256 a, uint256 b) internal pure returns (bool, uint256) {\n        unchecked {\n            if (b == 0) return (false, 0);\n            return (true, a % b);\n        }\n    }\n\n    function add(uint256 a, uint256 b) internal pure returns (uint256) {\n        return a + b;\n    }\n\n    function sub(uint256 a, uint256 b) internal pure returns (uint256) {\n        return a - b;\n    }\n\n    function mul(uint256 a, uint256 b) internal pure returns (uint256) {\n        return a * b;\n    }\n\n    function div(uint256 a, uint256 b) internal pure returns (uint256) {\n        return a / b;\n    }\n\n    function mod(uint256 a, uint256 b) internal pure returns (uint256) {\n        return a % b;\n    }\n\n    function sub(uint256 a, uint256 b, string memory errorMessage) internal pure returns (uint256) {\n        unchecked {\n            require(b <= a, errorMessage);\n            return a - b;\n        }\n    }\n\n    function div(uint256 a, uint256 b, string memory errorMessage) internal pure returns (uint256) {\n        unchecked {\n            require(b > 0, errorMessage);\n            return a / b;\n        }\n    }\n\n    function mod(uint256 a, uint256 b, string memory errorMessage) internal pure returns (uint256) {\n        unchecked {\n            require(b > 0, errorMessage);\n            return a % b;\n        }\n    }\n}\n\ncontract ERC20{\n\n  using SafeMath for uint256;\n  \n\n  string public name=\"HDA Token\";\n  string public asset=\"Reals Estate\";\n  uint256 public totalSupply=400000;\n  uint256  public decimals = 18;\n  address public issuer;\n  address public registrar;\n \n\n//Declaring events to emit on blockchain\n  event IssuerTransferred (address indexed oldIssuer, address indexed newIssuer);\n  event RegistrarTransferred (address indexed oldRegistrar, address indexed newRegistrar);\n  event Burn (address from, uint256 value);\n  event Transfer (address from, address to, uint256 amount);\n  event AddedToWhitelist (address holder);\n  event RemovedFromWhitelist (address holder);\n  event Approval(address indexed owner, address indexed spender, uint256 value);\n\n  mapping (address => uint256)  public _balances;\n  mapping (address => mapping (address => uint256))  public _allowed;\n\n  bool  public paused = false;\n\n   constructor() {\n    \n\n      issuer  =msg.sender;\n      registrar = 0xAb8483F64d9C6d1EcF9b849Ae677dD3315835cb2;\n      addToWhitelist(issuer);\n      addToWhitelist(registrar);\n      //transfering all tokens into issuer/owner's wallet\n      _balances[issuer] = totalSupply;\n             paused=true;\n     \n}\n\nmodifier onlyIssuerOrRegistrar {\n  require(msg.sender == issuer || msg.sender == registrar, \"only valid for issuer or registrar\");\n  _;\n  }\n      \nmodifier onlyIssuer {\n  require(msg.sender == issuer, \"only valid for issuer\");\n  _;\n  }\n\nmodifier onlyRegistrar {\n  require(msg.sender == registrar, \"only valid for issuer\");\n  _;\n}\nfunction checkBalanceforIsuuerorRegisterar(address _address) onlyIssuerOrRegistrar public view returns(uint256){\n\n    return _balances[_address];\n    }\n\nfunction checkBalance() public view returns(uint256){\n    return _balances[msg.sender];\n}\n\nfunction pauseContract() public onlyIssuerOrRegistrar returns(bool){\n  require(!paused, \"Contract already paused !\");  \n  paused=true;\n    return true;\n}\n\nfunction unpauseContract() public onlyIssuerOrRegistrar returns(bool){\n  require(paused, \"Contract already unpaused !\");\n  paused=false;\n    return true;\n}\n\nfunction isPaused() public view returns(bool){\n    return paused;\n}\n\n\n\nfunction newIssuer(address payable _newIssuer) public onlyIssuerOrRegistrar {\n  require(_newIssuer != address(0),\"Issuer can't be Null address\");\n  require(_newIssuer!=issuer,\"New issuer address and issuer should be same\");\n  removeFromWhitelist(issuer);\n  issuer = _newIssuer;\n  emit IssuerTransferred(issuer, _newIssuer);\n  addToWhitelist(_newIssuer);\n\n}\n\nfunction newRegistrar(address payable _newRegistrar) public onlyIssuerOrRegistrar  {\n  require(_newRegistrar!=address(0),\"Address should be valid\");\n  require(_newRegistrar!=registrar,\"Should be new Registrar\");\n  removeFromWhitelist(registrar);\n  emit RegistrarTransferred(registrar, _newRegistrar);\n  registrar = _newRegistrar;\n  addToWhitelist(_newRegistrar);\n}\n\n\n\nfunction customerAllowance(address reciever) public view returns (uint256) {    //returns the allowance limit of customer wallet \n    require(reciever!=address(0),\"Address should be valid\");\n    require(isWhitelisted(msg.sender), \"Holder needs to be whitelisted by registrar or issuer\");\n    require(isWhitelisted(reciever), \"Reciever needs to be whitelisted by registrar or issuer\");\n    return _allowed[msg.sender][reciever];\n  }\n\n  function increaseAllowance( address sender, address reciever,uint256 addedValue) public onlyIssuerOrRegistrar returns (bool){ \n    require(sender != address(0),\"sender:  incorrect input\");\n    require(reciever != address(0),\"reciever:  incorrect input\");\n    require(addedValue>0,\"addedValue : incorrect input\");\n    _allowed[sender][reciever] = (_allowed[sender][reciever].add(addedValue));\n    emit Approval(sender, reciever, _allowed[sender][reciever]);\n    return true;\n  }\n\n  function decreaseAllowance(address sender, address reciever,uint256 subtractedValue) public onlyIssuerOrRegistrar returns (bool){ \n    require(sender != address(0),\"sender:  incorrect input\");\n    require(reciever != address(0),\"sender:  incorrect input\");\n     require(subtractedValue>0,\" subtractedValue : incorrect input\");\n    _allowed[sender][reciever] = (\n      _allowed[sender][reciever].sub(subtractedValue));\n    emit Approval(sender, reciever, _allowed[sender][reciever]);\n    return true;\n  }\n\nfunction allowanceOf(address from, address to) onlyIssuerOrRegistrar public view returns (uint256) {    //returns the allowance limit for every wallet\n    require(from!=address(0),\"from : address should be valid\");\n    require(to!=address(0),\"to : address should be valid\");\n    return _allowed[from][to];\n  }\n\n\nfunction transferTokenAsIssuer(address from, address to, uint256 value) public onlyIssuerOrRegistrar returns (bool) {    \n    require(value>0,\"Value : incorrect value\");\n    require(value <= _balances[from]);\n    require(value <= _allowed[from][to]);                   \n    require(to != address(0));\n    //require(!paused, \"public transfer is paused\");  -- should stay outcommented:  before kill, all token should be transfered to issuer wallet \n    require(isWhitelisted(from), \"Holder needs to be whitelisted by registrar or issuer\");\n    require(isWhitelisted(to), \"Reciever needs to be whitelisted by registrar or issuer\");\n    require(value <= totalSupply, \"Value bigger than Totalsupply\");\n    \n    _balances[from] = _balances[from].sub(value);\n    _balances[to] = _balances[to].add(value);\n\n    require( _allowed[from][to] > 0 ,\"allowance is not defined\");\n    // _allowed[from][to] = _allowed[from][to].sub(value);   \n    emit Transfer(from, to, value);\n    return true;\n  }\n\n    function transferForCustomer (address _to,uint _value) public returns(bool){\n    require(_to != address(0));\n    require(_value>0,\"_value : should be valid\");\n    require(!paused, \"public transfer is paused\");\n    require(isWhitelisted(msg.sender), \"Sender needs to be whitelisted by registrar or issuer\");\n    require(_value <= _balances[msg.sender],\"Balance should be greater\");\n    require(isWhitelisted(_to), \"Reciever needs to be whitelisted by registrar or issuer\");\n    require(_value <= totalSupply, \"overflow protection\");\n    require(_value <= _balances[issuer], \"not enough balance\");\n    _balances[_to] += _value;\n    _balances[msg.sender] -= _value;\n    require(_allowed[msg.sender][_to] > 0,\"allowance is not defined\");\n    _allowed[msg.sender][_to]  -= _value;   \n    emit Transfer(issuer, _to, _value);\n    return true;\n    }\n   \n\n\n  function burn(uint256 amount) public onlyIssuerOrRegistrar returns (bool) {\n    require(amount > 0,\"amount : should be valid\");\n    require(amount <= _balances[issuer], \"not enough balance in issuer wallet to burn\");  \n    totalSupply -= amount;\n    _balances[issuer]=_balances[issuer].sub(amount); // Verbrannten Token werden vom Konto des Issuers verbrannt\n    emit Burn(msg.sender, amount);\n    return true;\n}\n\nfunction mint(uint256 _token) public onlyIssuerOrRegistrar returns (bool) { //creates new Token\n  require(_token>0,\"token: should valid\");\n  totalSupply += _token;\n  _balances[issuer] += _token;\n  return true;\n}\n\n  \n  function transferFromIssuer(address _to, uint256 _value) public onlyIssuer returns (bool success) //no allowance Check needed, because  onlyIssuer/Registrar\n{\n    require(_to != address(0));\n    require(_value>0,\"_value : should be valid\");\n    require(!paused, \"public transfer is paused\");\n    require(isWhitelisted(_to), \"Reciever needs to be whitelisted by registrar or issuer\");\n    require(_value <= totalSupply, \"overflow protection\");\n    require(_value <= _balances[issuer], \"not enough balance\");\n    _balances[_to] += _value;\n    _balances[issuer] -= _value;\n    emit Transfer(issuer, _to, _value);\n    \n    return true;\n}\n\n\nfunction addToWhitelist(address verifiedAddress) public onlyIssuerOrRegistrar returns (bool success) {\n  require(verifiedAddress!=address(0),\"verifedAddress should be valid\");\n  whitelist[verifiedAddress] = true;\n  return true;\n}\nmapping (address => bool) public whitelist ;\n\nfunction removeFromWhitelist(address _customer) public onlyIssuerOrRegistrar returns (bool success) {\n    require(_customer!=address(0),\"_customer : address should be valid\");\n    require(whitelist[_customer] == true, \"Address is not in your whitelist\");\n  whitelist[_customer] = false;\n  return true;\n}\n\nfunction isWhitelisted(address _address) public view returns (bool) {\n  require(_address!=address(0),\"_address : address should be valid\");\n  return whitelist[_address];\n}\n\nfunction kill() public onlyIssuer {\n  burn(totalSupply);\n  selfdestruct(payable(issuer));\n}\n\n\n}",
  "sourcePath": "/Users/vikasrushi/ERC20-Token-Testing/contracts/ERC20.sol",
  "compiler": {
    "name": "solc",
    "version": "0.8.0+commit.c7dfd78e.Emscripten.clang"
  },
  "schemaVersion": "3.4.10",
  "updatedAt": "2022-11-16T14:17:05.536Z",
  "devdoc": {
    "kind": "dev",
    "methods": {},
    "version": 1
  },
  "userdoc": {
    "kind": "user",
    "methods": {},
    "version": 1
  }
}